:100000000C9462000C948A000C948A000C948A0070
:100010000C948A000C948A000C948A000C948A0038
:100020000C948A000C948A000C948A000C948A0028
:100030000C948A000C948A000C948A000C948A0018
:100040000C94D6020C948A000C94A4020C947E02A8
:100050000C948A000C948A000C948A000C948A00F8
:100060000C948A000C948A000000000024002700F1
:100070002A0000000000250028002B0000000008D6
:10008000000201000003040700000000000000005F
:1000900000000000230026002900040404040404D6
:1000A0000404020202020202030303030303010227
:1000B00004081020408001020408102001020408F6
:1000C0001020BD0411241FBECFEFD8E0DEBFCDBF8E
:1000D00011E0A0E0B1E0EAE8FCE002C005900D927A
:1000E000AA32B107D9F721E0AAE2B1E001C01D921E
:1000F000A23DB207E1F710E0C2E6D0E004C02197CC
:10010000FE010E943D06C136D107C9F70E94650372
:100110000C9443060C940000AF92BF92CF92DF92F2
:10012000EF92FF920F931F93CF93DF936C017B01AC
:100130008B01040F151FEB015E01AE18BF08C0173D
:10014000D10759F06991D601ED91FC910190F081B0
:10015000E02DC6010995892B79F7C501DF91CF9173
:100160001F910F91FF90EF90DF90CF90BF90AF90D5
:100170000895FC01538D448D252F30E0842F90E0AD
:10018000821B930B541710F0CF9608950197089592
:10019000FC01918D828D981761F0A28DAE0FBF2F5B
:1001A000B11D5D968C91928D9F5F9F73928F90E0B1
:1001B00008958FEF9FEF0895FC01918D828D981720
:1001C00031F0828DE80FF11D858D90E008958FEF5D
:1001D0009FEF0895FC01918D228D892F90E0805C26
:1001E0009F4F821B91098F739927089585E391E0B2
:1001F0000E94EA0021E0892B09F420E0822F089573
:1002000080E090E0892B29F00E94F60081110C9487
:1002100000000895FC01A48DA80FB92FB11DA35AA9
:10022000BF4F2C91848D90E001968F739927848F16
:10023000A689B7892C93A089B1898C918370806439
:100240008C93938D848D981306C00288F389E02DDA
:1002500080818F7D80830895EF92FF920F931F938B
:10026000CF93DF93EC0181E0888F9B8D8C8D981369
:100270001AC0E889F989808185FF15C09FB7F89475
:10028000EE89FF896083E889F989808183708064C1
:1002900080839FBF81E090E0DF91CF911F910F910C
:1002A000FF90EF900895F62E0B8D10E00F5F1F4F1B
:1002B0000F731127E02E8C8D8E110CC00FB607FC2A
:1002C000FACFE889F989808185FFF5CFCE010E94B8
:1002D0000A01F1CFEB8DEC0FFD2FF11DE35AFF4F1B
:1002E000F0829FB7F8940B8FEA89FB898081806246
:1002F000CFCFCF93DF93EC01888D8823B9F0AA8903
:10030000BB89E889F9898C9185FD03C0808186FDD0
:100310000DC00FB607FCF7CF8C9185FFF2CF80811F
:1003200085FFEDCFCE010E940A01E9CFDF91CF9189
:10033000089590E0FC01E458FF4F2491FC01E25540
:10034000FF4F3491FC01E656FF4FE491EE23C9F0D4
:10035000222339F0233001F1A8F4213019F12230A1
:1003600029F1F0E0EE0FFF1FEE58FF4FA591B49179
:100370008FB7F894EC91611126C030953E233C93E1
:100380008FBF08952730A9F02830C9F0243049F7ED
:10039000809180008F7D03C0809180008F77809353
:1003A0008000DFCF84B58F7784BDDBCF84B58F7DB0
:1003B000FBCF8091B0008F778093B000D2CF809137
:1003C000B0008F7DF9CF3E2BDACFCF93DF9390E053
:1003D000FC01E255FF4F249186569F4FFC0184910A
:1003E0008823D1F090E0880F991FFC01E859FF4F56
:1003F000A591B491FC01EE58FF4FC591D4916111C4
:100400000EC09FB7F8948C91E22FE0958E238C93C9
:100410002881E223E8839FBFDF91CF9108958FB7B2
:10042000F894EC91E22BEC938FBFF6CF3FB7F894A2
:1004300080912F0190913001A0913101B091320152
:1004400026B5A89B05C02F3F19F00196A11DB11D2F
:100450003FBFBA2FA92F982F8827BC01CD01620F6B
:10046000711D811D911D42E0660F771F881F991F26
:100470004A95D1F708958F929F92AF92BF92CF92F3
:10048000DF92EF92FF920E9416024B015C018CE218
:10049000C82EDD24D394E12CF12C0E941602681999
:1004A00079098A099B09683E734081059105A8F383
:1004B00021E0C21AD108E108F10888EE880E83E035
:1004C000981EA11CB11CC114D104E104F10429F748
:1004D000FF90EF90DF90CF90BF90AF909F908F9064
:1004E0000895FC0101900020E9F73197AF01481B06
:1004F000590BBC0185E391E00C948C001F920F9284
:100500000FB60F9211242F933F934F935F936F93E6
:100510007F938F939F93AF93BF93EF93FF9385E365
:1005200091E00E940A01FF91EF91BF91AF919F91DD
:100530008F917F916F915F914F913F912F910F908C
:100540000FBE0F901F9018951F920F920FB60F922B
:1005500011242F938F939F93EF93FF93E091450185
:10056000F09146018081E0914B01F0914C0182FDB8
:100570001BC0908180914E018F5F8F7320914F013E
:10058000821741F0E0914E01F0E0EB5CFE4F958F59
:1005900080934E01FF91EF919F918F912F910F903A
:1005A0000FBE0F901F9018958081F4CF1F920F926D
:1005B0000FB60F9211242F933F938F939F93AF9376
:1005C000BF9380912B0190912C01A0912D01B091AE
:1005D0002E0130912A0123E0230F2D3758F5019683
:1005E000A11DB11D20932A0180932B0190932C0112
:1005F000A0932D01B0932E0180912F019091300195
:10060000A0913101B09132010196A11DB11D8093DD
:100610002F0190933001A0933101B0933201BF912B
:10062000AF919F918F913F912F910F900FBE0F909F
:100630001F90189526E8230F0296A11DB11DD2CF59
:10064000CF92DF92EF92FF920F931F93E82FF92F33
:1006500005C0015011092109310961F190819623EA
:100660009417B9F305C0015011092109310911F19D
:10067000908196239413F7CFC12CD12CE12CF12C2F
:100680000AC08FEFC81AD80AE80AF80A0C151D0527
:100690002E053F0579F080818623841791F36C2D18
:1006A0007D2D8E2D9F2D1F910F91FF90EF90DF904C
:1006B000CF90089560E070E080E090E01F910F918E
:1006C000FF90EF90DF90CF900895CF93DF93CDB759
:1006D000DEB7A1970FB6F894DEBF0FBECDBF7894FA
:1006E00084B5826084BD84B5816084BD85B5826037
:1006F00085BD85B5816085BD80916E0081608093E8
:100700006E00109281008091810082608093810050
:100710008091810081608093810080918000816060
:10072000809380008091B10084608093B1008091BB
:10073000B00081608093B00080917A0084608093E3
:100740007A0080917A00826080937A0080917A00AA
:10075000816080937A0080917A00806880937A002B
:100760001092C10061E089E00E94E50160E08AE04A
:100770000E94E50161E085E00E94E50160E085E01E
:100780000E949901E0914501F091460182E0808349
:10079000E0914101F09142011082E0914301F0911A
:1007A00044018FEC808310924D01E0914901F0915A
:1007B0004A0186E08083E0914701F0914801808101
:1007C00080618083E0914701F091480180818860D9
:1007D0008083E0914701F0914801808180688083A7
:1007E000E0914701F091480180818F7D808393E003
:1007F000E92EF12C23E2C22ED12C38EB232E30E04F
:10080000332E4AE0842E912CA12CB12C60E089E09B
:100810000E949901C7010197F1F761E089E00E9408
:100820009901C6010197F1F760E089E00E94990102
:10083000F1016491E4EAF0E08491E82FF0E0EE0F3A
:10084000FF1FE057FF4F8591949100E412E42FE0E1
:1008500030E0462F0E942003611571058105910546
:1008600029F06F5F7F4F8F4F9F4F9F700E9422052F
:1008700026E933E44BE05DE30E94860520E030E0AA
:1008800040E05FE30E9486050E94EA047093340111
:100890006093330182E191E00E9471024090330144
:1008A00050903401052C000C6608770877FE48C08C
:1008B0006DE285E391E00E942C0122273327A901F4
:1008C000241935094609570919A2CE0181963C0120
:1008D000CA01B901A50194010E941B06605DF301E4
:1008E00062933F01211531054105510589F76114D6
:1008F000710419F0C3010E9471028DE191E00E9420
:1009000071020E943B02809133019091340147971C
:100910006CF161E085E00E94990180E291E00E9423
:1009200071020E943B0280E090E0892B09F46ECFB7
:100930000E94F600882309F469CF0E94000066CF68
:10094000A301920119A2CE0181963C01CA01B9010D
:10095000A50194010E941B06605DF30162933F01B3
:10096000211531054105510589F7C1CF60E085E0CA
:100970000E94990185E291E0D2CFE5E3F1E0138294
:10098000128288EE93E0A0E0B0E084839583A68392
:10099000B78384E091E09183808385EC90E0958734
:1009A000848784EC90E09787868780EC90E0918B39
:1009B000808B81EC90E0938B828B82EC90E0958B26
:1009C000848B86EC90E0978B868B118E128E138E23
:1009D000148E08950E94F1046894B1110C9480055E
:1009E00008950E94650588F09F5798F0B92F9927C0
:1009F000B751B0F0E1F0660F771F881F991F1AF00A
:100A0000BA95C9F714C0B13091F00E947F05B1E0EA
:100A100008950C947F05672F782F8827B85F39F0E9
:100A2000B93FCCF3869577956795B395D9F73EF4A2
:100A300090958095709561957F4F8F4F9F4F08954A
:100A4000E89409C097FB3EF4909580957095619568
:100A50007F4F8F4F9F4F9923A9F0F92F96E9BB271E
:100A60009395F695879577956795B795F111F8CF9A
:100A7000FAF4BB0F11F460FF1BC06F5F7F4F8F4F05
:100A80009F4F16C0882311F096E911C0772321F0FB
:100A90009EE8872F762F05C0662371F096E8862F93
:100AA00070E060E02AF09A95660F771F881FDAF7EA
:100AB000880F9695879597F9089557FD9058440F9C
:100AC000551F59F05F3F71F04795880F97FB991FAD
:100AD00061F09F3F79F0879508951216130614066A
:100AE000551FF2CF4695F1DF08C0161617061806F7
:100AF000991FF1CF86957105610508940895E894D2
:100B0000BB2766277727CB0197F908950E9499059F
:100B10000C940A060E94FC0538F00E94030620F09F
:100B2000952311F00C94F3050C94F90511240C9401
:100B300080050E945D0570F3959FC1F3950F50E00D
:100B4000551F629FF001729FBB27F00DB11D639F7F
:100B5000AA27F00DB11DAA1F649F6627B00DA11D25
:100B6000661F829F2227B00DA11D621F739FB00DCB
:100B7000A11D621F839FA00D611D221F749F33273B
:100B8000A00D611D231F849F600D211D822F762FD4
:100B90006A2F11249F5750409AF0F1F088234AF0B1
:100BA000EE0FFF1FBB1F661F771F881F915050401D
:100BB000A9F79E3F510580F00C94F3050C94800535
:100BC0005F3FE4F3983ED4F3869577956795B795A4
:100BD000F795E7959F5FC1F7FE2B880F911D9695BE
:100BE000879597F9089597F99F6780E870E060E02E
:100BF00008959FEF80EC089500240A9416161706B6
:100C000018060906089500240A94121613061406FD
:100C100005060895092E0394000C11F4882352F060
:100C2000BB0F40F4BF2B11F460FF04C06F5F7F4F18
:100C30008F4F9F4F0895A1E21A2EAA1BBB1BFD01E7
:100C40000DC0AA1FBB1FEE1FFF1FA217B307E407AB
:100C5000F50720F0A21BB30BE40BF50B661F771F03
:100C6000881F991F1A9469F76095709580959095E3
:100C70009B01AC01BD01CF010895EE0FFF1F059050
:0A0C8000F491E02D0994F894FFCFE1
:100C8A00000000002C018C00B9007901EA00C800BC
:100C9A00DC0044697374616E63653A20000D0A00D2
:0A0CAA006F6E2D20006F662D2000F4
:00000001FF
